{
  "_format": "hh-sol-artifact-1",
  "contractName": "TODO",
  "sourceName": "contracts/TODO.sol",
  "abi": [
    {
      "anonymous": false,
      "inputs": [
        {
          "indexed": false,
          "internalType": "address",
          "name": "owner",
          "type": "address"
        },
        {
          "indexed": false,
          "internalType": "string",
          "name": "content",
          "type": "string"
        },
        {
          "indexed": false,
          "internalType": "bool",
          "name": "status",
          "type": "bool"
        }
      ],
      "name": "TaskCreated",
      "type": "event"
    },
    {
      "inputs": [
        {
          "internalType": "string",
          "name": "content",
          "type": "string"
        }
      ],
      "name": "createtask",
      "outputs": [
        {
          "internalType": "uint256",
          "name": "",
          "type": "uint256"
        }
      ],
      "stateMutability": "nonpayable",
      "type": "function"
    },
    {
      "inputs": [
        {
          "internalType": "uint256",
          "name": "id",
          "type": "uint256"
        }
      ],
      "name": "deleteTasksById",
      "outputs": [
        {
          "internalType": "bool",
          "name": "",
          "type": "bool"
        }
      ],
      "stateMutability": "nonpayable",
      "type": "function"
    },
    {
      "inputs": [],
      "name": "fetchMyTasks",
      "outputs": [
        {
          "components": [
            {
              "internalType": "address",
              "name": "owner",
              "type": "address"
            },
            {
              "internalType": "string",
              "name": "content",
              "type": "string"
            },
            {
              "internalType": "bool",
              "name": "status",
              "type": "bool"
            }
          ],
          "internalType": "struct TODO.Task[]",
          "name": "",
          "type": "tuple[]"
        }
      ],
      "stateMutability": "view",
      "type": "function"
    },
    {
      "inputs": [
        {
          "internalType": "uint256",
          "name": "id",
          "type": "uint256"
        }
      ],
      "name": "fetchTaskById",
      "outputs": [
        {
          "components": [
            {
              "internalType": "address",
              "name": "owner",
              "type": "address"
            },
            {
              "internalType": "string",
              "name": "content",
              "type": "string"
            },
            {
              "internalType": "bool",
              "name": "status",
              "type": "bool"
            }
          ],
          "internalType": "struct TODO.Task",
          "name": "",
          "type": "tuple"
        }
      ],
      "stateMutability": "view",
      "type": "function"
    },
    {
      "inputs": [
        {
          "internalType": "uint256",
          "name": "id",
          "type": "uint256"
        }
      ],
      "name": "toggleStatus",
      "outputs": [
        {
          "internalType": "bool",
          "name": "",
          "type": "bool"
        }
      ],
      "stateMutability": "nonpayable",
      "type": "function"
    },
    {
      "inputs": [
        {
          "internalType": "uint256",
          "name": "id",
          "type": "uint256"
        },
        {
          "internalType": "string",
          "name": "content",
          "type": "string"
        }
      ],
      "name": "updateTaskById",
      "outputs": [
        {
          "internalType": "bool",
          "name": "",
          "type": "bool"
        }
      ],
      "stateMutability": "nonpayable",
      "type": "function"
    }
  ],
  "bytecode": "0x608060405234801561001057600080fd5b50611368806100206000396000f3fe608060405234801561001057600080fd5b50600436106100625760003560e01c806351db2e76146100675780635e24de0e146100975780639e0c3d99146100c7578063a0c40b0a146100f7578063d6ca512914610127578063f79fb2ab14610157575b600080fd5b610081600480360381019061007c9190610bdb565b610175565b60405161008e9190610c23565b60405180910390f35b6100b160048036038101906100ac9190610d84565b610276565b6040516100be9190610ddc565b60405180910390f35b6100e160048036038101906100dc9190610df7565b6103a2565b6040516100ee9190610c23565b60405180910390f35b610111600480360381019061010c9190610bdb565b61047d565b60405161011e9190610c23565b60405180910390f35b610141600480360381019061013c9190610bdb565b61058d565b60405161014e9190610f7b565b60405180910390f35b61015f610761565b60405161016c91906110af565b60405180910390f35b60003373ffffffffffffffffffffffffffffffffffffffff166001600084815260200190815260200160002060000160009054906101000a900473ffffffffffffffffffffffffffffffffffffffff1673ffffffffffffffffffffffffffffffffffffffff161461021b576040517f08c379a00000000000000000000000000000000000000000000000000000000081526004016102129061112e565b60405180910390fd5b6001600083815260200190815260200160002060020160009054906101000a900460ff16156001600084815260200190815260200160002060020160006101000a81548160ff02191690831515021790555060019050919050565b6000806102836000610a51565b905060405180606001604052803373ffffffffffffffffffffffffffffffffffffffff168152602001848152602001600015158152506001600083815260200190815260200160002060008201518160000160006101000a81548173ffffffffffffffffffffffffffffffffffffffff021916908373ffffffffffffffffffffffffffffffffffffffff160217905550602082015181600101908051906020019061032f929190610a75565b5060408201518160020160006101000a81548160ff02191690831515021790555090505061035d6000610a5f565b7f98d1c5e27e417e5fc0f6b95cd5eeec744516cf334af0dcaba984ae66291b0ad93384600060405161039193929190611196565b60405180910390a180915050919050565b60003373ffffffffffffffffffffffffffffffffffffffff166001600085815260200190815260200160002060000160009054906101000a900473ffffffffffffffffffffffffffffffffffffffff1673ffffffffffffffffffffffffffffffffffffffff1614610448576040517f08c379a000000000000000000000000000000000000000000000000000000000815260040161043f9061112e565b60405180910390fd5b81600160008581526020019081526020016000206001019080519060200190610472929190610a75565b506001905092915050565b60003373ffffffffffffffffffffffffffffffffffffffff166001600084815260200190815260200160002060000160009054906101000a900473ffffffffffffffffffffffffffffffffffffffff1673ffffffffffffffffffffffffffffffffffffffff1614610523576040517f08c379a000000000000000000000000000000000000000000000000000000000815260040161051a9061112e565b60405180910390fd5b60016000838152602001908152602001600020600080820160006101000a81549073ffffffffffffffffffffffffffffffffffffffff021916905560018201600061056e9190610afb565b6002820160006101000a81549060ff0219169055505060019050919050565b610595610b3b565b3373ffffffffffffffffffffffffffffffffffffffff166001600084815260200190815260200160002060000160009054906101000a900473ffffffffffffffffffffffffffffffffffffffff1673ffffffffffffffffffffffffffffffffffffffff1614610639576040517f08c379a00000000000000000000000000000000000000000000000000000000081526004016106309061112e565b60405180910390fd5b600160008381526020019081526020016000206040518060600160405290816000820160009054906101000a900473ffffffffffffffffffffffffffffffffffffffff1673ffffffffffffffffffffffffffffffffffffffff1673ffffffffffffffffffffffffffffffffffffffff1681526020016001820180546106bd90611203565b80601f01602080910402602001604051908101604052809291908181526020018280546106e990611203565b80156107365780601f1061070b57610100808354040283529160200191610736565b820191906000526020600020905b81548152906001019060200180831161071957829003601f168201915b505050505081526020016002820160009054906101000a900460ff1615151515815250509050919050565b6060600061076f6000610a51565b905060008060005b83811161080b573373ffffffffffffffffffffffffffffffffffffffff166001600083815260200190815260200160002060000160009054906101000a900473ffffffffffffffffffffffffffffffffffffffff1673ffffffffffffffffffffffffffffffffffffffff1614156107f8576001836107f59190611264565b92505b8080610803906112ba565b915050610777565b5060008267ffffffffffffffff81111561082857610827610c59565b5b60405190808252806020026020018201604052801561086157816020015b61084e610b3b565b8152602001906001900390816108465790505b50905060005b848111610a46573373ffffffffffffffffffffffffffffffffffffffff166001600083815260200190815260200160002060000160009054906101000a900473ffffffffffffffffffffffffffffffffffffffff1673ffffffffffffffffffffffffffffffffffffffff161415610a335760008190506000600160008381526020019081526020016000209050806040518060600160405290816000820160009054906101000a900473ffffffffffffffffffffffffffffffffffffffff1673ffffffffffffffffffffffffffffffffffffffff1673ffffffffffffffffffffffffffffffffffffffff16815260200160018201805461096690611203565b80601f016020809104026020016040519081016040528092919081815260200182805461099290611203565b80156109df5780601f106109b4576101008083540402835291602001916109df565b820191906000526020600020905b8154815290600101906020018083116109c257829003601f168201915b505050505081526020016002820160009054906101000a900460ff161515151581525050848681518110610a1657610a15611303565b5b6020026020010181905250600185610a2e9190611264565b945050505b8080610a3e906112ba565b915050610867565b508094505050505090565b600081600001549050919050565b6001816000016000828254019250508190555050565b828054610a8190611203565b90600052602060002090601f016020900481019282610aa35760008555610aea565b82601f10610abc57805160ff1916838001178555610aea565b82800160010185558215610aea579182015b82811115610ae9578251825591602001919060010190610ace565b5b509050610af79190610b74565b5090565b508054610b0790611203565b6000825580601f10610b195750610b38565b601f016020900490600052602060002090810190610b379190610b74565b5b50565b6040518060600160405280600073ffffffffffffffffffffffffffffffffffffffff168152602001606081526020016000151581525090565b5b80821115610b8d576000816000905550600101610b75565b5090565b6000604051905090565b600080fd5b600080fd5b6000819050919050565b610bb881610ba5565b8114610bc357600080fd5b50565b600081359050610bd581610baf565b92915050565b600060208284031215610bf157610bf0610b9b565b5b6000610bff84828501610bc6565b91505092915050565b60008115159050919050565b610c1d81610c08565b82525050565b6000602082019050610c386000830184610c14565b92915050565b600080fd5b600080fd5b6000601f19601f8301169050919050565b7f4e487b7100000000000000000000000000000000000000000000000000000000600052604160045260246000fd5b610c9182610c48565b810181811067ffffffffffffffff82111715610cb057610caf610c59565b5b80604052505050565b6000610cc3610b91565b9050610ccf8282610c88565b919050565b600067ffffffffffffffff821115610cef57610cee610c59565b5b610cf882610c48565b9050602081019050919050565b82818337600083830152505050565b6000610d27610d2284610cd4565b610cb9565b905082815260208101848484011115610d4357610d42610c43565b5b610d4e848285610d05565b509392505050565b600082601f830112610d6b57610d6a610c3e565b5b8135610d7b848260208601610d14565b91505092915050565b600060208284031215610d9a57610d99610b9b565b5b600082013567ffffffffffffffff811115610db857610db7610ba0565b5b610dc484828501610d56565b91505092915050565b610dd681610ba5565b82525050565b6000602082019050610df16000830184610dcd565b92915050565b60008060408385031215610e0e57610e0d610b9b565b5b6000610e1c85828601610bc6565b925050602083013567ffffffffffffffff811115610e3d57610e3c610ba0565b5b610e4985828601610d56565b9150509250929050565b600073ffffffffffffffffffffffffffffffffffffffff82169050919050565b6000610e7e82610e53565b9050919050565b610e8e81610e73565b82525050565b600081519050919050565b600082825260208201905092915050565b60005b83811015610ece578082015181840152602081019050610eb3565b83811115610edd576000848401525b50505050565b6000610eee82610e94565b610ef88185610e9f565b9350610f08818560208601610eb0565b610f1181610c48565b840191505092915050565b610f2581610c08565b82525050565b6000606083016000830151610f436000860182610e85565b5060208301518482036020860152610f5b8282610ee3565b9150506040830151610f706040860182610f1c565b508091505092915050565b60006020820190508181036000830152610f958184610f2b565b905092915050565b600081519050919050565b600082825260208201905092915050565b6000819050602082019050919050565b6000606083016000830151610fe16000860182610e85565b5060208301518482036020860152610ff98282610ee3565b915050604083015161100e6040860182610f1c565b508091505092915050565b60006110258383610fc9565b905092915050565b6000602082019050919050565b600061104582610f9d565b61104f8185610fa8565b93508360208202850161106185610fb9565b8060005b8581101561109d578484038952815161107e8582611019565b94506110898361102d565b925060208a01995050600181019050611065565b50829750879550505050505092915050565b600060208201905081810360008301526110c9818461103a565b905092915050565b600082825260208201905092915050565b7f4e4f5420544845204f574e455200000000000000000000000000000000000000600082015250565b6000611118600d836110d1565b9150611123826110e2565b602082019050919050565b600060208201905081810360008301526111478161110b565b9050919050565b61115781610e73565b82525050565b600061116882610e94565b61117281856110d1565b9350611182818560208601610eb0565b61118b81610c48565b840191505092915050565b60006060820190506111ab600083018661114e565b81810360208301526111bd818561115d565b90506111cc6040830184610c14565b949350505050565b7f4e487b7100000000000000000000000000000000000000000000000000000000600052602260045260246000fd5b6000600282049050600182168061121b57607f821691505b6020821081141561122f5761122e6111d4565b5b50919050565b7f4e487b7100000000000000000000000000000000000000000000000000000000600052601160045260246000fd5b600061126f82610ba5565b915061127a83610ba5565b9250827fffffffffffffffffffffffffffffffffffffffffffffffffffffffffffffffff038211156112af576112ae611235565b5b828201905092915050565b60006112c582610ba5565b91507fffffffffffffffffffffffffffffffffffffffffffffffffffffffffffffffff8214156112f8576112f7611235565b5b600182019050919050565b7f4e487b7100000000000000000000000000000000000000000000000000000000600052603260045260246000fdfea2646970667358221220f720e03dcb89a0ac2afefe684809c46f169de794a1756685fd888936db880afe64736f6c634300080b0033",
  "linkReferences": {},
  "deployedLinkReferences": {}
}