{
    "_format": "hh-sol-artifact-1",
    "contractName": "Population",
    "sourceName": "contracts/Population.sol",
    "abi": [
        {
            "inputs": [],
            "stateMutability": "nonpayable",
            "type": "constructor"
        },
        {
            "inputs": [
                {
                    "internalType": "string",
                    "name": "_country",
                    "type": "string"
                },
                {
                    "internalType": "uint256",
                    "name": "_count",
                    "type": "uint256"
                }
            ],
            "name": "decrement",
            "outputs": [
                {
                    "internalType": "uint256",
                    "name": "",
                    "type": "uint256"
                }
            ],
            "stateMutability": "view",
            "type": "function"
        },
        {
            "inputs": [
                {
                    "internalType": "string",
                    "name": "_country",
                    "type": "string"
                },
                {
                    "internalType": "uint256",
                    "name": "_count",
                    "type": "uint256"
                }
            ],
            "name": "increment",
            "outputs": [
                {
                    "internalType": "uint256",
                    "name": "",
                    "type": "uint256"
                }
            ],
            "stateMutability": "view",
            "type": "function"
        },
        {
            "inputs": [
                {
                    "internalType": "string",
                    "name": "",
                    "type": "string"
                }
            ],
            "name": "popCount",
            "outputs": [
                {
                    "internalType": "uint256",
                    "name": "",
                    "type": "uint256"
                }
            ],
            "stateMutability": "view",
            "type": "function"
        }
    ],
    "bytecode": "0x608060405234801561001057600080fd5b5060dc600060405161002190610167565b908152602001604051809103902081905550602d60006040516100439061013d565b90815260200160405180910390208190555061012c600060405161006690610152565b908152602001604051809103902081905550610187565b600061008a60078361017c565b91507f556b7261696e65000000000000000000000000000000000000000000000000006000830152600782019050919050565b60006100ca60068361017c565b91507f52757373696100000000000000000000000000000000000000000000000000006000830152600682019050919050565b600061010a60058361017c565b91507f496e6469610000000000000000000000000000000000000000000000000000006000830152600582019050919050565b60006101488261007d565b9150819050919050565b600061015d826100bd565b9150819050919050565b6000610172826100fd565b9150819050919050565b600081905092915050565b610508806101966000396000f3fe608060405234801561001057600080fd5b50600436106100415760003560e01c806318ea121d1461004657806333d5d19814610076578063d7937c06146100a6575b600080fd5b610060600480360381019061005b9190610209565b6100d6565b60405161006d91906102f5565b60405180910390f35b610090600480360381019061008b919061024a565b610104565b60405161009d91906102f5565b60405180910390f35b6100c060048036038101906100bb919061024a565b610148565b6040516100cd91906102f5565b60405180910390f35b6000818051602081018201805184825260208301602085012081835280955050505050506000915090505481565b6000808260008560405161011891906102de565b90815260200160405180910390205461013191906103dd565b8161013c9190610387565b90508091505092915050565b6000808260008560405161015c91906102de565b9081526020016040518091039020546101759190610387565b816101809190610387565b90508091505092915050565b600061019f61019a84610341565b610310565b9050828152602081018484840111156101b757600080fd5b6101c284828561041b565b509392505050565b600082601f8301126101db57600080fd5b81356101eb84826020860161018c565b91505092915050565b600081359050610203816104bb565b92915050565b60006020828403121561021b57600080fd5b600082013567ffffffffffffffff81111561023557600080fd5b610241848285016101ca565b91505092915050565b6000806040838503121561025d57600080fd5b600083013567ffffffffffffffff81111561027757600080fd5b610283858286016101ca565b9250506020610294858286016101f4565b9150509250929050565b60006102a982610371565b6102b3818561037c565b93506102c381856020860161042a565b80840191505092915050565b6102d881610411565b82525050565b60006102ea828461029e565b915081905092915050565b600060208201905061030a60008301846102cf565b92915050565b6000604051905081810181811067ffffffffffffffff821117156103375761033661048c565b5b8060405250919050565b600067ffffffffffffffff82111561035c5761035b61048c565b5b601f19601f8301169050602081019050919050565b600081519050919050565b600081905092915050565b600061039282610411565b915061039d83610411565b9250827fffffffffffffffffffffffffffffffffffffffffffffffffffffffffffffffff038211156103d2576103d161045d565b5b828201905092915050565b60006103e882610411565b91506103f383610411565b9250828210156104065761040561045d565b5b828203905092915050565b6000819050919050565b82818337600083830152505050565b60005b8381101561044857808201518184015260208101905061042d565b83811115610457576000848401525b50505050565b7f4e487b7100000000000000000000000000000000000000000000000000000000600052601160045260246000fd5b7f4e487b7100000000000000000000000000000000000000000000000000000000600052604160045260246000fd5b6104c481610411565b81146104cf57600080fd5b5056fea2646970667358221220117d9a80d7468d722dc1dbf974b273a4347e8fca4631332377685fe9a02cd11664736f6c63430008000033",
    "linkReferences": {},
    "deployedLinkReferences": {}
}